:100000000C94F5000C94F1030C9412010C94120161
:100010000C9412010C9412010C9412010C94120114
:100020000C9412010C9412010C9412010C94120104
:100030000C9412010C9412010C9412010C941201F4
:100040000C9412010C9412010C9412010C941201E4
:100050000C94120104030904420353007000610070
:10006000630065006D0061006E00200053007000A9
:10007000690066006600200068007400740070006B
:100080003A002F002F00730079006D006C006900AA
:100090006E006B002E0064006B002A03530070009A
:1000A00069006600660027007300200043003600E8
:1000B000340020004B006500790062006F00610091
:1000C00072006400060334003200120101010000D6
:1000D00000084242ADDE980101020301090222003C
:1000E000010100403209040000010301010009215F
:1000F00001010001223F000705810308000A792061
:1001000022717375771E281A151C0C137A297D0429
:10011000070A0D0F8466812170727476786F7E1DD8
:10012000060510376B2C7F16090B0E837B68800841
:100130001718128582147C671B191136386C6A00F7
:100140000000000000001F003400230024002400F1
:1001500034882500260026002700270027882E0245
:100160002E8A2D002D883502358A4A804D802A003E
:100170004C88250225022E002E88518052804F8007
:1001800050803A803B803C803D803E803F80408074
:1001900041802302230033022F88330030881F8AD6
:1001A0001F8A010204081020408005010906A101F0
:1001B000050719E029E71500250175019508810259
:1001C0009501750881039505750105081901290533
:1001D0009102950175039103950675081500256533
:1001E0000507190029658100C00011241FBECFE555
:1001F000D4E0DEBFCDBF10E0A0E6B0E0E2E2F4E183
:1002000002C005900D92AE36B107D9F710E0AEE608
:10021000B0E001C01D92AF3AB107E1F70E94D702EA
:100220000C94100A0C94000085B7836085BF8BB7CF
:1002300080648BBF83EC8093850008950F931F9398
:10024000CF93DF936091950016160CF0D9C06350E0
:1002500080919200C5EAD0E0C81BD109809191003D
:100260008D3209F0B0C08AE580936100683009F0F2
:10027000BFC09881892F807609F091C023E830E0D3
:10028000109283008981882369F49F7119F481E0B9
:100290008093830010928400309394002093930005
:1002A00092E088C0853021F48A8180939600FEC058
:1002B000863009F056C08B81813041F48AEC90E0A1
:1002C000909394008093930092E1F3C0823041F4C4
:1002D0008CED90E0909394008093930092E2E9C0BB
:1002E000833051F58A81882341F484E590E090932E
:1002F00094008093930094E0DCC0813041F488E561
:1003000090E0909394008093930092E4D2C0823066
:1003100041F48AE990E090939400809393009AE2EC
:10032000C8C0833009F0C4C084EC90E0909394007E
:100330008093930096E0BDC0813241F48EEE90E050
:10034000909394008093930099E0B3C0823209F0B7
:10035000AFC08AEA91E090939400809393009FE36A
:10036000A8C0883039F488E990E090939400809395
:1003700093000CC0893021F48A818093980096C044
:100380008A3031F4309394002093930091E012C0AE
:100390008B3009F08BC083EC8093850087C0CE0141
:1003A0000E948302982F8F3F29F4888187FF1AC00B
:1003B0009E8118C020E88F818823E1F48E818917FF
:1003C000C8F4982F17C080916E0087FD11C0CE0130
:1003D0000E94C3028F3F41F4809360008EE18093BE
:1003E00061009FEF20E006C08823D9F390E0FACFA8
:1003F00090E020E820936E009093600010929500AA
:100400008091610084FF47C0809160008F3F09F4B4
:1004100042C0682F893008F068E0861B8093600036
:1004200080916E0080FF02C003EC01C00BE48F5F7F
:1004300080936E00209193003091940086FD05C05A
:10044000962FF901ABE7B0E00DC0962FF901ABE7AD
:10045000B0E003C084918D9331969150D8F704C0D9
:1004600081918D939150E0F7C901860F911D909372
:100470009400809393007727162F8BE790E00E94DB
:100480006D05183018F48FEF8093600000937A00A8
:100490001C5F109361009AE080B3857061F4915005
:1004A000D9F7109296001092900005C090E082CF8C
:1004B00090E020EC80CFDF91CF911F910F910895B4
:1004C0001F93DC01162F8091620084FF07C080918A
:1004D000850098E889278093850003C08AE580938A
:1004E0006200912FE6E8F0E002C08D918193915077
:1004F000E0F7612F86E890E00E946D051C5F109385
:1005000062001F910895FC0181E790E090939400B0
:100510008093930080818076803291F58181813053
:1005200019F488E090E00895893051F4868197812C
:10053000019731F581E080936F008FEF90E008958F
:10054000823019F489E790E014C08A3021F4838165
:100550008093790007C0833041F48381882381F43C
:1005600010926D0080E090E008958B3049F48DE6A4
:1005700090E0909394008093930081E090E0089540
:1005800080E090E00895FC0180916F00882351F095
:10059000613041F480818093700081FF02C0919AA4
:1005A00001C0919810926F0081E090E00895CF9281
:1005B000DF92EF92FF920F931F93CF93DF93CDB70C
:1005C000DEB722970FB6F894DEBF0FBECDBF88E12D
:1005D00090E02FE00FB6F894A89581BD0FBE21BD25
:1005E0008FEF88BB17BA85BB14BA8AEF82BB87E04E
:1005F00081BB8CE28A95F1F782E081BB85E083BF05
:100600000E9414017894FF24EE24A8950E941E01F4
:1006100040916C0020E030E0A3E6B0E06FEF58E7D7
:10062000E2EAF1E0283038F48F98979A849187BBFA
:10063000809588BB04C017BA68BB8F9A9798852F9E
:100640008A95F1F793B38C9198134AE09D932F5FAD
:100650003F4F31962930310529F740936C004130E6
:1006600011F090E097C088E0E1E7F0E011928A9500
:10067000E9F780916700482F5527407450708091AA
:100680006A00282F33272270307011E090E0A3E633
:10069000B0E060E070E00C910F3F09F45FC01A8297
:1006A00081E057C08981802309F04EC08A81FB0117
:1006B000E80FF11DE250FF4F84918F3670F1E82F63
:1006C000EF5641155105B9F02115310511F48C375C
:1006D00090F0CE2EDD24CC0CDD1CCC0CDD1CC60134
:1006E0008A5B9E4FFC018491E7E4F1E0CE0EDF1EB1
:1006F000F60194911FC0CE2EDD24CC0CDD1CCC0C59
:10070000DD1CC601885B9E4FFC018491E9E4F1E0A9
:10071000CE0EDF1EF60194910DC0863658F0E82FFC
:10072000FF27E45CFE4FE491809171008E2B809353
:1007300071000AC0882341F01F5F183028F4E12FB0
:10074000FF27EF58FF4F80838A818F5F8A838981DB
:10075000880F89838A81883008F4A4CF1196685F56
:100760007F4F6834710509F096CF97FF05C08091DF
:1007700071008F7D8093710093FF05C0809171009F
:100780008D7F80937100977780917100892B809382
:10079000710091E080916C00882319F08150809362
:1007A0006C0008B600FE0FC081E088BF8091790020
:1007B000882349F0F4E0FE1520F0E82E81E0F82EC1
:1007C00005C02BEFE20EF92A09F41FCF80916200D9
:1007D00084FF1BCF68E081E790E00E946002FF2465
:1007E00014CFCF93CFB7CF93809BFECF809B09C010
:1007F000809B07C0809B05C0809B03C0809B01C07D
:100800009EC0DF93C0919200DD27C756DF4F809BCB
:1008100002C0DF91EBCF2F930F931F9300B32FEF05
:1008200000FB20F94F933F9310B34FEF012700FBDC
:1008300021F93BE031C04E7F012F10B3216028C069
:10084000102F4D7F2260000000B329C04B7F246031
:10085000012F000010B32BC010B3477F28602AC0BF
:100860004F7E00B320612CC04F7D10B320622FC09B
:100870004F7B00B3206432C0422700B349934FEF4F
:100880000000102710FB20F910B31570A9F1297F83
:1008900091F2012700FB21F900B3237F89F2315047
:1008A000F0F1102710FB22F910B3277E79F201270F
:1008B00000FB23F92F7C81F200B3102710FB24F9F1
:1008C0002F7971F200C010B3012700FB25F92F73B7
:1008D00059F200C000B3102710FB26F9223040F275
:1008E00000C010B3012700FB27F9243028F64F770A
:1008F000206810B30000F9CF3B503195333010E43D
:100900001ABFB8F0C31BD0400881033C41F10B343F
:1009100031F11981412F1F7720919000121731F486
:10092000093691F10D3279F0013E69F022272093CA
:1009300097003F914F911F910F912F91DF91CF9190
:10094000CFBFCF911895009397003F914F911F9182
:100950000F912F91DF91CAB7C6FD46CFF0CF00911E
:100960009700002331F3109195001123A1F5343045
:10097000A2F13093950000939100109192003BE01A
:10098000311B3093920029C00091950001301CF575
:100990000AE547FD09C03091610034FD20C0009395
:1009A0006100CAE7D0E01FC03091620034FD17C07B
:1009B00000936200C5E8D0E016C0052710E002BB36
:1009C0001FC0052722C0052727C005272CC00527E3
:1009D00010E002BB33C04AE503C042ED01C0432F23
:1009E000C4E1D0E032E011B31560909A02B311BBBC
:1009F0005F9355E020E820FF052702BB2795179558
:100A00001C3FD8F620FF0527279502BB17951C3FF2
:100A1000C0F620FF05272795179502BB1C3F98F6C7
:100A200020FF0527279517951C3F02BB70F600C0D5
:100A3000499120FF052702BB279517951C3F38F6E3
:100A400020FF0527279502BB17951C3F38F520FF8F
:100A500005272795179502BB1C3F10F520FF05279A
:100A6000279517951C3F02BBE8F4242F3A9519F6F9
:100A70000A7F5F9102BB00C010919600C651D04022
:100A800011F01093900010E41ABF016011B31A7FA7
:100A9000402F4A7F02BB11BB42BB4BCF0527D3CFB0
:100AA0000527D8CF0527DDCFA82FB92F8FEF9FEFD0
:100AB00041E050EA615070F02D9138E0722F7827B4
:100AC00096958795269570FF02C0842795273A95BD
:100AD000A9F7F0CF809590950895E6DF8D939D93CB
:100AE00008952F923F924F925F926F927F928F92D2
:100AF0009F92AF92BF92CF92DF92EF92FF920F93AD
:100B00001F93CF93DF93CDB7DEB761970FB6F894FD
:100B1000DEBF0FBECDBF1C01798B688B5A01FC0173
:100B200017821682838181FD03C08FEF9FEF66C11C
:100B3000442450C1242D332720FF38C1852D8053F4
:100B40008A3008F442C1F7E6F51554F185E65816E7
:100B50000CF04DC093E5591609F461C09515ACF041
:100B6000EBE25E1609F431C1E5154CF0F0E25F16D8
:100B700009F42BC123E2521609F010C126C1852DBC
:100B80008D52823008F00AC120C183E6581691F1D7
:100B900085150CF44FC098E5591609F0FFC021C027
:100BA000E0E75E16D1F0E51564F0FCE65F16E1F0D3
:100BB0008FE6581609F462C099E6591609F0EEC09E
:100BC00039C0E5E75E1609F45BC0F8E75F1649F047
:100BD00023E7521609F0E2C014C038E7532E80E133
:100BE0004EC090E19F874CC0E4E04E2AEEC09FE3E8
:100BF000C92E91C0F501C08022E030E0A20EB31EE4
:100C00008AC085010E5F1F4FF501C080D180F601BB
:100C100001900020E9F73197EC19EF87EDC08501CD
:100C20000E5F1F4FF501C080D180C6010E941809D8
:100C30008F87E2C022FF08C0F50180819181A281E7
:100C4000B38124E030E009C0F50180819181AA27B9
:100C500097FDA095BA2F22E030E0A20EB31E6C01E2
:100C60007D01B7FF22C032E0432AF094E094D09493
:100C7000C094C11CD11CE11CF11C17C088E08F87F7
:100C800022FF08C0F50180819181A281B38124E017
:100C900030E007C0F50180819181AA27BB2722E0BF
:100CA00030E0A20EB31E6C017D0187017601CE01FA
:100CB00001969E878D879F85692E772488249924A5
:100CC000C801B701A40193010E94CC096A301CF04D
:100CD000650D615201C0605DED85FE856193FE8703
:100CE000ED87C801B701A40193010E94CC097901E5
:100CF0008A01211531054105510511F7CC24DD2468
:100D0000760141FE05C0B1018DE290E00E946409C8
:100D1000F3E65F1631F4B1018C2D992787FD90958C
:100D200042C023E7521691F446011F8509C0F40121
:100D300081914F01B101992787FD90950E94640927
:100D40001150A8F72FEF2F8744243FC033E55316E7
:100D500019F00D851E851AC086019F8408C0F80110
:100D60008491B10199270E9464090F5F1F4F9A94E3
:100D7000FFEF9F16A1F7FF87E7CFF80182918F0160
:100D8000B101992787FD90950E946409CE010196D3
:100D90000817190791F71E870D87D6CFB101852D4A
:100DA000992787FD90950E946409CECFF5E25F16E2
:100DB00029F42AE02F8781E0482E07C0B101852D54
:100DC000992787FD90950E946409888999890196E1
:100DD000998B888BF101838183FF04C0E889F989AD
:100DE000549003C0E889F9895080552009F0A2CEBB
:100DF000F1018681978102C0580193CF61960FB6A9
:100E0000F894DEBF0FBECDBFDF91CF911F910F9140
:100E1000FF90EF90DF90CF90BF90AF909F908F901A
:100E20007F906F905F904F903F902F9008952F92FA
:100E30003F924F925F926F927F928F929F92AF926A
:100E4000BF92CF92DF92EF92FF920F931F93CF93B7
:100E5000DF93CDB7DEB729970FB6F894DEBF0FBE8C
:100E6000CDBF2C01798768874A01FC011782168261
:100E7000838180FD05C02FEF3FEF3C832B83BDC1F5
:100E80001E821D828FEF9FEF9C838B8366247724C5
:100E90001A821982222485C120FE71C1853219F47B
:100EA0009EEF292278C1992787FD90950E94FD0920
:100EB000382EACE68A1769F1A817A4F0B4E68B17B0
:100EC00009F474C0B8172CF0E3E68E1709F03DC1A1
:100ED00023C0F8E68F1709F45EC129E6821709F0EE
:100EE00034C164C033E7831751F138174CF08FE6F3
:100EF000381609F452C090E7391609F026C152C0DD
:100F0000A5E78A1709F450C0B8E78B1709F01DC18F
:100F100049C0E4E02E2A3FC1D4010D911C91C201C9
:100F20000E9421093C01BFEF8F3F9B0709F449C193
:100F3000E2E0F0E08E0E9F1ED8018D9306C1840181
:100F40000E5F1F4FF401E080F180C2010E94210971
:100F50003C010E94EE09892BC1F7FFEF6F16FFEFEE
:100F60007F0661F42EC1C3010E94EE09892B31F086
:100F70005701B201C3010E9491090BC0D7016D92C4
:100F80007D01C2010E9421093C018F5F9F4F59F7EB
:100F90005701F50110824801D8C0E2E02E2AF8E09E
:100FA000FF8304C020E12F8332E0232AC2010E9484
:100FB00021093C010E94EE09892BC1F78FEF6816C9
:100FC0008FEF780609F4FBC0862D8D3219F08B3235
:100FD00059F402C098E0292AC2010E9421093C016B
:100FE0008F5F9F4F09F4EBC0B0E36B1691F5AA2415
:100FF000BB246501C2010E9421093C01EFEF8F3F34
:101000009E0709F475C00E94FD098837E9F4FFE6E0
:101010003F1631F024E6321619F035E7331629F47D
:10102000B201C3010E94910963C0C2010E9421095B
:101030003C018FEF68168FEF780619F490E19F83DB
:1010400057C0A0E1AF8305C0B9E63B1611F4E8E054
:10105000EF83EE24FF248701C3010E94FD0920EDE8
:10106000C22E2FEFD22EC80ED91EFAE0CF16D10411
:101070003CF0C601C19762F029ED3FEFC20ED31ECE
:10108000D7FC06C03F81832F9927C816D9063CF0AC
:1010900057016801B201C3010E94910920C08F81EC
:1010A000282F332744275527C801B7010E94AD09CF
:1010B0007B018C01C601AA2797FDA095BA2FE80EE7
:1010C000F91E0A1F1B1FC2010E9421093C019FEF4C
:1010D00069169FEF790609F0BFCF5701680123FE1B
:1010E00007C0AA24BB246501AE18BF08C00AD10AF4
:1010F000222D3327C90186709070069741F4D401E0
:10110000ED91FC91A082B182C282D38207C021FFFF
:101110000AC0D401ED91FC91B182A082E2E0F0E03E
:101120008E0E9F1E12C0C401029622FF08C0D40179
:10113000ED91FC91A082B182C282D38205C0D4011C
:10114000ED91FC91B182A0824C01F20186819781E0
:1011500029813A812817390744F48D819E810196AF
:101160009E838D831C821B8208C09EE6391639F54A
:10117000AFEF6A16AFEF7A0611F122240CC0853268
:1011800051F4F2010680F781E02DFA83E983FAE059
:10119000FF8381E0282E288539852F5F3F4F3987CF
:1011A0002887F201838183FF04C0E885F985849153
:1011B00003C0A885B9858C91882309F06DCE20FEE7
:1011C0000FC0F2018681978129813A81281739075A
:1011D0003CF48D819E8101969E838D831C821B82AF
:1011E0009FEF69169FEF790621F4AD81BE81AB2B8D
:1011F00021F0ED81FE81FC83EB838B819C8129961C
:101200000FB6F894DEBF0FBECDBFDF91CF911F9117
:101210000F91FF90EF90DF90CF90BF90AF909F9095
:101220008F907F906F905F904F903F902F90089598
:10123000FC0105900020E9F7809590958E0F9F1F87
:101240000895CF93DF93EC012B81822F992780FFA4
:1012500015C086FF0AC02F7B2B838E819F8101964C
:101260009F838E838A8199272CC082FF12C0E881D8
:10127000F9818081882329F420622B838FEF9FEFEF
:1012800020C0282F332727FD30953196F983E88336
:1012900011C0EA85FB85CE0109959C0197FF0AC024
:1012A0008B812F5F3F4F11F490E101C090E2892BB9
:1012B0008B83E4CF8E819F8101969F838E83822FC3
:1012C0009927DF91CF9108950F931F93CF93DF93C9
:1012D0008C01EB018B81992781FF1BC082FF0DC020
:1012E0002E813F818C819D812817390764F4E88124
:1012F000F9810193F983E88306C0E885F985802F99
:101300000995892B31F48E819F8101969F838E836D
:1013100002C00FEF1FEFC801DF91CF911F910F9116
:101320000895AC01FB012381822F992780FF12C011
:1013300086FD10C08FEF4F3F580761F04283206455
:101340002F7D238386819781019797838683842FBE
:10135000992708958FEF9FEF0895629FD001739FA3
:10136000F001829FE00DF11D649FE00DF11D929F41
:10137000F00D839FF00D749FF00D659FF00D992780
:10138000729FB00DE11DF91F639FB00DE11DF91FA4
:10139000BD01CF0111240895A1E21A2EAA1BBB1B87
:1013A000FD010DC0AA1FBB1FEE1FFF1FA217B30731
:1013B000E407F50720F0A21BB30BE40BF50B661F47
:1013C000771F881F991F1A9469F76095709580950B
:1013D00090959B01AC01BD01CF010895911113C0FF
:1013E000803251F08A3041F08C3031F08D3021F074
:1013F000893011F08B3099F708958F9309D08F9130
:1014000009F08062089599278827089585FDFBCF0C
:1014100080629111F8CF8136ECF38B37DCF70895B9
:02142000FFCFFC
:0E142200FF5A5AFFFFFFFFFFFFFFFFFF05010C
:00000001FF
