:100000000C94F5000C94F9030C9410010C9410015D
:100010000C9410010C9410010C9410010C9410011C
:100020000C9410010C9410010C9410010C9410010C
:100030000C9410010C9410010C9410010C941001FC
:100040000C9410010C9410010C9410010C941001EC
:100050000C94100109022200010100403209040041
:10006000000103010100092101010001223F0007F5
:1000700005810308000A1201010100000008424244
:10008000ADDE9801010203010603340032002A03A9
:1000900053007000690066006600270073002000AE
:1000A00043003600340020004B00650079006200F8
:1000B0006F00610072006400420353007000610031
:1000C000630065006D0061006E0020005300700049
:1000D000690066006600200068007400740070000B
:1000E0003A002F002F00730079006D006C0069004A
:1000F0006E006B002E0064006B0004030904050110
:100100000906A101050719E029E715002501750178
:10011000950881029501750881039505750105080B
:10012000190129059102950175039103950675083A
:10013000150025650507190029658100C001020425
:1001400008102040801F00340023002400240034C5
:10015000882500260026002700270027882E022E4B
:100160008A2D002D883502358A4A804D802A004C20
:1001700088250225022E002E88518052804F805003
:10018000803A803B803C803D803E803F8040804183
:10019000802302230033022F88330030881F8A1FF8
:1001A0008A792022717375771E281A151C0C137A10
:1001B000297D04070A0D0F84668121707274767898
:1001C0006F7E1D060510376B2C7F16090B0E837B87
:1001D0006880081718128582147C671B191136383D
:1001E0006C6A000000000000000011241FBECFE573
:1001F000D4E0DEBFCDBF10E0A0E6B0E0E8E2F4E17D
:1002000002C005900D92AE36B107D9F710E0AEE608
:10021000B0E001C01D92AF3AB107E1F70C94E002E3
:100220000C9400001F93DC01162F8091600084FF66
:1002300007C08091850098E889278093850003C0D6
:100240008AE580936000E6E8F0E090E0212F2195B8
:1002500003C08D91819391509217D9F7612F86E851
:1002600090E00E9475051C5F109360001F91089537
:100270000F931F93CF93DF936091950016160CF0A8
:10028000DDC0635080919200C5EAD0E0C81BD1095F
:10029000809191008D3209F0B4C08AE580936100AD
:1002A000683009F0C3C09881892F807609F092C028
:1002B00023E830E0109283008981882369F49F71DC
:1002C00019F481E0809383001092840030939400AD
:1002D0002093930092E006C0853031F48A818093A8
:1002E000960090E020E885C0863009F055C08B81EB
:1002F000813041F486E790E09093940080939300DE
:1003000092E176C0823041F484E590E090939400CD
:100310008093930092E26CC0833051F58A818823E8
:1003200041F48AEF90E0909394008093930094E0DE
:100330005FC0813041F488EB90E09093940080930B
:10034000930092E455C0823041F48EE890E090939F
:100350009400809393009AE24BC0833009F047C029
:1003600088E890E0909394008093930096E040C0DA
:10037000813241F486E690E090939400809393005C
:1003800099E036C0823299F58EEF90E09093940018
:10039000809393009FE32CC0883039F488E990E083
:1003A00090939400809393000CC0893021F48A814B
:1003B0008093980096CF8A3031F430939400209344
:1003C000930091E08FCF8B3009F08BCF83EC80933B
:1003D000850087CFCE010E948C02982F8F3F09F0B5
:1003E00081CF888188230CF49E8120E021C090E099
:1003F00020EC8F818823E1F48E818917C8F4982F2F
:1004000017C080916E0087FD11C0CE010E94CC0202
:100410008F3F31F4809362008EE18093610004C0CD
:10042000882311F090E0E1CF9FEFDFCF90E020E84C
:1004300020936E009093620010929500809161006D
:1004400084FF51C0809162008F3F09F44CC0893015
:1004500010F068E001C0682F861B809362008091D5
:100460006E0080FF02C003EC01C00BE48F5F80933D
:100470006E00E0919300F091940086FD04C0ABE71C
:10048000B0E090E010C0ABE7B0E090E0262F2195FF
:1004900004C084918D93319691509217D1F707C083
:1004A00081918D939150862F81959817C9F7F0937C
:1004B0009400E09393007727162F693060F48BE760
:1004C00090E00E947505912F9C5F183040F48FEFEB
:1004D0008093620004C08FEF809362009EE10093DE
:1004E0007A00909361009AE080B3857031F4915066
:1004F000D9F71092960010929000DF91CF911F9142
:100500000F91089585B7836085BF8BB780648BBFDB
:1005100083EC809385000895FC0182E790E090933E
:1005200094008093930080818076803291F5818160
:10053000813019F488E090E00895893051F4868183
:100540009781019731F581E0809370008FEF90E003
:100550000895823019F481E790E014C08A3021F4C4
:1005600083818093710007C0833041F483818823A5
:1005700081F410926C0080E090E008958B3049F493
:100580008CE690E0909394008093930081E090E05B
:10059000089580E090E00895FC0180917000882328
:1005A00051F0613041F4808180936F0081FF02C07F
:1005B000919A01C091981092700081E090E00895A6
:1005C000CDE5D4E0DEBFCDBF88E190E02FE00FB6EF
:1005D000F894A89581BD0FBE21BD8FEF88BB17BAD7
:1005E00085BB14BA8AEF82BB87E081BB8CE28A9517
:1005F000F1F782E081BB85E083BF0E94820278949C
:10060000EE24FF2402C01F2DF12EA8950E94380170
:1006100020916D0030E002C0383058F48F98979ADE
:10062000E32FFF27E35CFE4FE491E7BBE095E8BBD7
:1006300005C017BA8FEF88BB8F9A979888E78A957D
:10064000F1F793B3E32FFF27ED59FF4F8081981304
:100650002AE090833F5F3930F8F220936D0021301B
:1006600011F090E09EC088E0E2E7F0E011928A95F8
:10067000E9F780916700482F5527A6E056954795E2
:10068000AA95E1F74170507080916A00282F3327B6
:10069000369527952170307011E090E0A3E6B0E028
:1006A00060E070E00C910F3F09F45FC0198281E0B7
:1006B00057C08A81802309F04EC08981FB01E80F71
:1006C000F11DEF55FE4F84918F3670F1E82FEF56F4
:1006D00041155105B9F02115310511F48C3790F011
:1006E000CE2EDD24CC0CDD1CCC0CDD1CC6018B5BBE
:1006F0009E4FFC018491E6E4F1E0CE0EDF1EF60190
:1007000094911FC0CE2EDD24CC0CDD1CCC0CDD1C46
:10071000C601895B9E4FFC018491E8E4F1E0CE0EB6
:10072000DF1EF60194910DC0863658F0E82FFF27A2
:10073000E952FF4FE491809172008E2B80937200FA
:100740000AC0882341F01F5F183028F4E12FFF27EB
:10075000EE58FF4F808389818F5F89838A81880F5C
:100760008A838981883008F4A4CF1196685F7F4F0F
:100770006834710509F096CF97FF05C0809172002B
:100780008F7D8093720093FF05C0809172008D7FF2
:1007900080937200977780917200892B809372000A
:1007A00091E080916D00882319F0815080936D0055
:1007B000E92A08B600FE0EC081E088BF10917100E2
:1007C000112341F0F4E0FF1518F081E0E82E06C097
:1007D0008BEFF80EEE2009F416CF1F2D80916000EC
:1007E00084FF12CF68E082E790E00E941201EE24BD
:1007F0000BCFCF93CFB7CF93809BFECF809B09C009
:10080000809B07C0809B05C0809B03C0809B01C06C
:100810009EC0DF93C0919200DD27C756DF4F809BBB
:1008200002C0DF91EBCF2F930F931F9300B32FEFF5
:1008300000FB20F94F933F9310B34FEF012700FBCC
:1008400021F93BE031C04E7F012F10B3216028C059
:10085000102F4D7F2260000000B329C04B7F246021
:10086000012F000010B32BC010B3477F28602AC0AF
:100870004F7E00B320612CC04F7D10B320622FC08B
:100880004F7B00B3206432C0422700B349934FEF3F
:100890000000102710FB20F910B31570A9F1297F73
:1008A00091F2012700FB21F900B3237F89F2315037
:1008B000F0F1102710FB22F910B3277E79F20127FF
:1008C00000FB23F92F7C81F200B3102710FB24F9E1
:1008D0002F7971F200C010B3012700FB25F92F73A7
:1008E00059F200C000B3102710FB26F9223040F265
:1008F00000C010B3012700FB27F9243028F64F77FA
:10090000206810B30000F9CF3B503195333010E42C
:100910001ABFB8F0C31BD0400881033C41F10B342F
:1009200031F11981412F1F7720919000121731F476
:10093000093691F10D3279F0013E69F022272093BA
:1009400097003F914F911F910F912F91DF91CF9180
:10095000CFBFCF911895009397003F914F911F9172
:100960000F912F91DF91CAB7C6FD46CFF0CF00910E
:100970009700002331F3109195001123A1F5343035
:10098000A2F13093950000939100109192003BE00A
:10099000311B3093920029C00091950001301CF565
:1009A0000AE547FD09C03091610034FD20C0009385
:1009B0006100CAE7D0E01FC03091600034FD17C06D
:1009C00000936000C5E8D0E016C0052710E002BB28
:1009D0001FC0052722C0052727C005272CC00527D3
:1009E00010E002BB33C04AE503C042ED01C0432F13
:1009F000C4E1D0E032E011B31560909A02B311BBAC
:100A00005F9355E020E820FF052702BB2795179547
:100A10001C3FD8F620FF0527279502BB17951C3FE2
:100A2000C0F620FF05272795179502BB1C3F98F6B7
:100A300020FF0527279517951C3F02BB70F600C0C5
:100A4000499120FF052702BB279517951C3F38F6D3
:100A500020FF0527279502BB17951C3F38F520FF7F
:100A600005272795179502BB1C3F10F520FF05278A
:100A7000279517951C3F02BBE8F4242F3A9519F6E9
:100A80000A7F5F9102BB00C010919600C651D04012
:100A900011F01093900010E41ABF016011B31A7F97
:100AA000402F4A7F02BB11BB42BB4BCF0527D3CFA0
:100AB0000527D8CF0527DDCFA82FB92F8FEF9FEFC0
:100AC00041E050EA615070F02D9138E0722F7827A4
:100AD00096958795269570FF02C0842795273A95AD
:100AE000A9F7F0CF809590950895E6DF8D939D93BB
:100AF00008952F923F924F925F926F927F928F92C2
:100B00009F92AF92BF92CF92DF92EF92FF920F939C
:100B10001F93CF93DF93CDB7DEB72F970FB6F8941F
:100B2000DEBF0FBECDBF2C017F876E873A01FC016F
:100B300017821682838181FD07C18FEF9FEF64C109
:100B40002E853F852F5F3F4F3F872E87C0FE3CC1DC
:100B50008D2D80538A3008F446C18D2D992787FD4D
:100B6000909537E63D155CF1E5E6DE160CF04EC0DB
:100B7000F3E5DF1609F466C0FD15B4F02BE2D216DA
:100B800009F431C12D154CF030E2D31609F42BC114
:100B9000E3E2DE1609F016C126C1F3EDDF0E21E017
:100BA0002D1508F40FC11FC133E6D31691F13D1581
:100BB0000CF454C0E8E5DE1609F004C121C0F0E7EA
:100BC000DF16D1F0FD1564F02CE6D216E1F03FE619
:100BD000D31609F467C0E9E6DE1609F0F3C03EC09B
:100BE000F5E7DF1609F460C028E7D21649F033E7CD
:100BF000D31609F0E7C014C028E7D22E80E153C015
:100C000090E19D8751C0E4E0CE2AEDC09FE3892E9C
:100C100094C0F301808022E030E0620E731E8DC02C
:100C2000F301A081B1814D01FD0101900020E9F7A0
:100C30003197EA1BED8722E030E0620E731E8401DB
:100C4000FF2492C083010E5F1F4FF30180819181C9
:100C50004C010E941C098D87380190C0C2FE08C05B
:100C6000F30180819181A281B38124E030E009C049
:100C7000F30180819181AA2797FDA095BA2F22E0E8
:100C800030E0620E731E4C015D01B7FF22C032E0FE
:100C9000C32AB094A09490948094811C911CA11CB0
:100CA000B11C17C088E08D87C2FE08C0F3018081A7
:100CB0009181A281B38124E030E007C0F3018081FB
:100CC0009181AA27BB2722E030E0620E731E4C01FF
:100CD0005D01850174011E010894211C311C3D85B4
:100CE000832E9924AA24BB24C801B701A50194012D
:100CF0000E94D0096A301CF06D0D615201C0605D28
:100D0000F10161931F01C801B701A50194010E947F
:100D1000D00979018A01211531054105510521F7D5
:100D2000882499245401C1FE05C0B2018DE290E0EF
:100D30000E946809F3E6DF1649F4B201882D99276D
:100D400087FD90950E946809CC244DC023E7D216F8
:100D500081F475CFF80181918F01B201992787FD48
:100D600090950E946809FA948D858195F81691F7FF
:100D700015C023E5D21611F081011EC08401FF24A5
:100D800009C0F8018491B20199270E9468090F5F98
:100D90001F4FFA948D858195F81699F7FD85FF0D03
:100DA000F150FD87D1CFF80182918F01B2019927CF
:100DB00087FD90950E946809CE01019608171907D2
:100DC00091F7C2CFB201BECFF5E2DF1629F481E080
:100DD000C82E2AE02D8707C0B2018D2D992787FDE7
:100DE00090950E946809F201838183FF04C0EE851B
:100DF000FF85D49003C0EE85FF85D080DD2009F00B
:100E00009FCEF201868197812F960FB6F894DEBFB0
:100E10000FBECDBFDF91CF911F910F91FF90EF904B
:100E2000DF90CF90BF90AF909F908F907F906F900A
:100E30005F904F903F902F9008952F923F924F9246
:100E40005F926F927F928F929F92AF92BF92CF925A
:100E5000DF92EF92FF920F931F93CF93DF93CDB763
:100E6000DEB729970FB6F894DEBF0FBECDBF2C01B9
:100E7000798768874A01FC0117821682838180FD89
:100E800005C02FEF3FEF3C832B83BBC122241E8282
:100E90001D82662477248FEF9FEF9C838B831A82B9
:100EA000198283C1A885B9851196B987A88720FEC4
:100EB00070C1853219F4BEEF2B2277C1992787FDC7
:100EC00090950E94010A382EECE68E1769F1E8171A
:100ED000A4F0F4E68F1709F473C0F8172CF023E69A
:100EE000821709F03BC123C038E6831709F45DC1BE
:100EF00089E6381609F032C163C093E7391679F1F3
:100F000093154CF0AFE63A1609F451C0B0E73B1622
:100F100009F024C151C0E5E73E1609F44FC0F8E7D7
:100F20003F1609F01BC148C024E0222A3EC18401BB
:100F30000E5F1F4FD401ED90FC90C2010E94250965
:100F40003C01BFEF8F3F9B0709F43FC1F70181933D
:100F50002CC05701B201C3010E94950924C084012D
:100F60000E5F1F4FD401ED90FC90C2010E94250935
:100F70003C010E94F209892BC1F7BFEF6B16BFEF4E
:100F80007B0609F422C1C3010E94F209892B09F7EB
:100F9000F70161927F01C2010E9425093C018F5F28
:100FA0009F4F89F75701F50110824801D7C022E011
:100FB000222A38E03F8304C080E18F8392E0292A0F
:100FC000C2010E9425093C010E94F209892BC1F748
:100FD000AFEF6A16AFEF7A0609F4F5C0862D8D32B1
:100FE00019F08B3259F402C0B8E02B2AC2010E94DA
:100FF00025093C018F5F9F4F09F4E5C0F0E36F16B0
:1010000081F5AA24BB246501C2010E9425093C0187
:101010002FEF8F3F920709F474C00E94010A8837AE
:10102000D9F43FE6331631F084E6381619F095E727
:10103000391629F4B201C3010E94950962C0C201A8
:101040000E9425093C018F5F9F4F19F4B0E1BF83D7
:1010500058C0E0E1EF8305C0F9E63F1611F428E03F
:101060002F83EE24FF248701C3010E94010A9C0103
:1010700090EDC92E9FEFD92EC20ED31E8AE0C8165E
:10108000D1044CF0C901815690406AF06901A9EA87
:10109000BFEFCA0EDB1ED7FC06C0BF818B2F99277E
:1010A000C816D9063CF057016801B201C3010E947D
:1010B00095091EC0EF812E2F332744275527C801DD
:1010C000B7010E94B1097B018C01C601AA2797FDD7
:1010D000A095BA2FE80EF91E0A1F1B1FC2010E941D
:1010E00025093C018F5F9F4F09F0BECF5701680172
:1010F00023FE07C0AA24BB246501AE18BF08C00A9E
:10110000D10A222D3327C90186709070069741F4C9
:10111000D401ED91FC91A082B182C282D38207C03A
:1011200021FF0AC0D401ED91FC91B182A082E2E0DE
:10113000F0E08E0E9F1E12C0C401029622FF08C06E
:10114000D401ED91FC91A082B182C282D38205C00C
:10115000D401ED91FC91B182A0824C01F201868113
:10116000978129813A81281739074CF48D819E8116
:1011700001969E838D8322241C821B8216C09EE6CC
:10118000391609F5AFEF6A16AFEF7A06E1F02224BF
:101190000CC0853251F4F2010680F781E02DFA830C
:1011A000E98381E0282EFAE0FF83F201838183FF47
:1011B00004C0E885F985849103C0A885B9858C9120
:1011C000882309F06FCE20FE0FC0F201868197813F
:1011D00029813A81281739073CF48D819E81019637
:1011E0009E838D831C821B829FEF69169FEF790679
:1011F00021F4AD81BE81AB2B21F0ED81FE81FC831A
:10120000EB838B819C8129960FB6F894DEBF0FBECD
:10121000CDBFDF91CF911F910F91FF90EF90DF90A5
:10122000CF90BF90AF909F908F907F906F905F9086
:101230004F903F902F900895FC0105900020E9F712
:10124000809590958E0F9F1F0895CF93DF93EC01AB
:101250002B81822F992780FF19C086FF0AC02F7B20
:101260002B838E819F8101969F838E838A8199270C
:101270002CC082FF12C0E881F9818081482F552758
:1012800047FD5095882329F420622B838FEF9FEF31
:101290001CC03196F983E88311C0EA85FB85CE0135
:1012A0000995AC0197FF0AC08B814F5F5F4F11F426
:1012B00090E101C090E2892B8B83E8CF8E819F81E2
:1012C00001969F838E83842F9927DF91CF91089574
:1012D0000F931F93CF93DF938C01EB018B819927A1
:1012E00081FF1BC082FF0DC02E813F818C819D81BB
:1012F0002817390764F4E881F9810193F983E883B9
:1013000006C0E885F985802F0995892B31F48E81F7
:101310009F8101969F838E8302C00FEF1FEFC8014C
:10132000DF91CF911F910F910895AC01FB012381B3
:10133000822F992780FF12C086FD10C08FEF4F3F8C
:10134000580761F0428320642F7D23838681978133
:10135000019797838683842F992708958FEF9FEFB6
:101360000895629FD001739FF001829FE00DF11DEF
:10137000649FE00DF11D929FF00D839FF00D749F0F
:10138000F00D659FF00D9927729FB00DE11DF91FBB
:10139000639FB00DE11DF91FBD01CF011124089518
:1013A000A1E21A2EAA1BBB1BFD010DC0AA1FBB1F69
:1013B000EE1FFF1FA217B307E407F50720F0A21BDB
:1013C000B30BE40BF50B661F771F881F991F1A9448
:1013D00069F760957095809590959B01AC01BD0172
:1013E000CF010895911113C0803251F08A3041F03D
:1013F0008C3031F08D3021F0893011F08B3099F73D
:1014000008958F9309D08F9109F0806208959927EC
:101410008827089585FDFBCF80629111F8CF813632
:08142000ECF38B37DCF70895B3
:0E1428005A5AFFFFFFFFFFFFFFFFFFFF010506
:00000001FF
